:100000000C946E030C9496030C9496030C94960334
:100010000C9496030C9496030C9496030C949603FC
:100020000C9496030C9496030C94A00C0C94120D53
:100030000C9496030C9496030C9496030C949603DC
:100040000C9496030C9496030C9496030C949603CC
:100050000C9496030C9496030C9496030C94E9115B
:100060000C9496030C9496030C9496030C949603AC
:100070000C9496030C9496030C9496030C9496039C
:100080000C9496030C9496030C9496030C9496038C
:100090000C94700B0C9496030C9496030C9496039A
:1000A0000C9496030C9496030C949603FB0FFE0F8E
:1000B000ED0FF10FF50F1F101F101F10021006108B
:1000C0000A10101014101F101A1000000000003E3B
:1000D0005B4F5B3E3E6B4F6B3E1C3E7C3E1C183CB8
:1000E0007E3C181C577D571C1C5E7F5E1C00183C14
:1000F0001800FFE7C3E7FF0018241800FFE7DBE75D
:10010000FF30483A060E2629792926407F05050743
:10011000407F05253F5A3CE73C5A7F3E1C1C08089F
:100120001C1C3E7F14227F22145F5F005F5F060964
:100130007F017F006689956A606060606094A2FFBD
:10014000A29408047E040810207E201008082A1CAF
:1001500008081C2A08081E101010100C1E0C1E0C7B
:1001600030383E3830060E3E0E060000000000001B
:10017000005F00000007000700147F147F14242A8A
:100180007F2A12231308646236495620500008075C
:100190000300001C2241000041221C002A1C7F1C7D
:1001A0002A08083E0808008070300008080808087F
:1001B000000060600020100804023E5149453E00E6
:1001C000427F400072494949462141494D33181444
:1001D000127F1027454545393C4A49493141211193
:1001E00009073649494936464949291E0000140085
:1001F00000004034000000081422411414141414A8
:10020000004122140802015909063E415D594E7C05
:100210001211127C7F494949363E414141227F41BA
:1002200041413E7F494949417F090909013E414118
:1002300051737F0808087F00417F41002040413F03
:10024000017F081422417F404040407F021C027F12
:100250007F0408107F3E4141413E7F090909063E67
:100260004151215E7F091929462649494932030136
:100270007F01033F4040403F1F2040201F3F403848
:10028000403F631408146303047804036159494D23
:1002900043007F4141410204081020004141417F59
:1002A00004020102044040404040000307080020CF
:1002B000545478407F2844443838444444283844CF
:1002C00044287F385454541800087E090218A4A406
:1002D0009C787F0804047800447D40002040403D25
:1002E000007F1028440000417F40007C047804789F
:1002F0007C080404783844444438FC182424181832
:10030000242418FC7C08040408485454542404048D
:100310003F44243C4040207C1C2040201C3C40307A
:10032000403C44281028444C9090907C4464544CA9
:100330004400083641000000770000004136080004
:1003400002010204023C2623263C1EA1A161123AAE
:100350004040207A385454555921555579412254FA
:10036000547842215554784020545579400C1E52FF
:1003700072123955555559395454545939555454A4
:10038000580000457C410002457D420001457C400B
:100390007D1211127DF0282528F07C54554500204F
:1003A00054547C547C0A097F4932494949323A44C1
:1003B00044443A324A4848303A4141217A3A42402C
:1003C0002078009DA0A07D3D4242423D3D404040FE
:1003D0003D3C24FF2424487E4943662B2FFC2F2BD1
:1003E000FF0929F620C0887E090320545479410072
:1003F00000447D413048484A32384040227A007AF1
:100400000A0A727D0D19317D2629292F28262929CE
:10041000292630484D4020380808080808080808F0
:10042000382F10C8ACBA2F102834FA00007B000017
:1004300008142A142222142A14085500550055AA1B
:1004400055AA55AAFF55FF55FF000000FF001010E8
:1004500010FF00141414FF001010FF00FF1010F024
:1004600010F0141414FC001414F700FF0000FF0037
:10047000FF1414F404FC141417101F10101F101F85
:100480001414141F00101010F0000000001F1010B2
:1004900010101F10101010F010000000FF101010AE
:1004A000101010101010FF10000000FF140000FFCB
:1004B00000FF00001F10170000FC04F414141710B4
:1004C000171414F404F40000FF00F71414141414A7
:1004D0001414F700F7141414171410101F101F141D
:1004E0001414F4141010F010F000001F101F00007E
:1004F000001F14000000FC140000F010F01010FFAA
:1005000010FF141414FF141010101F00000000F04E
:1005100010FFFFFFFFFFF0F0F0F0F0FFFFFF000023
:10052000000000FFFF0F0F0F0F0F3844443844FC4A
:100530004A4A4A347E02020606027E027E02635561
:100540004941633844443C04407E201E2006027E1C
:10055000020299A5E7A5991C2A492A1C4C7201722E
:100560004C304A4D4D303048784830BC625A463D98
:100570003E494949007E0101017E2A2A2A2A2A444D
:10058000445F444440514A444040444A5140000082
:10059000FF0103E080FF000008086B6B083612368D
:1005A0002436060F090F060000181800000010106E
:1005B000003040FF0101001F01011E00191D17122C
:1005C000003C3C3C3C0000000000080B0002020222
:1005D00001000904000001020200000524001001CE
:1005E0000524010101042402060524060001070573
:1005F000810310004009040100020A000000070501
:1006000002024000000705830240000004030904C1
:10061000537061726B46756E00537061726B4675F4
:100620006E2050726F204D6963726F0012010002DC
:10063000000000404F1B069200010102030112015D
:100640000002EF0201404F1B06920001010203016C
:100650003C42A58199A5423C3C42A581BD81423CDA
:100660003C42A581A599423CFFFFF1E1E1E1FFFF9A
:1006700000000000250028002B002E00310004049B
:10068000040404030405020202020403020202023B
:100690000606060606060404020202040404080212
:1006A00001104080401020408040800802040180FA
:1006B0004020100201108010204040200000000265
:1006C00000090F0000030401000C000000000000FE
:1006D00000000000000000000000801511241FBE73
:1006E000CFEFDAE0DEBFCDBF11E0A0E0B1E0EAE697
:1006F000FBE202C005900D92A038B107D9F722E0C5
:10070000A0E8B1E001C01D92A63EB207E1F713E0F8
:10071000CEE6D3E004C02197FE010E94A815CD3695
:10072000D107C9F70E9470120C94B3150C94000005
:100730004091CB015091CC012091C9013091CA0167
:1007400042175307B4F49091E8009570E1F390914B
:10075000E80092FD19C08093F1008091CB01909147
:10076000CC0101968F739927892B19F48EEF809312
:10077000E8008091CB019091CC0101969093CC013F
:100780008093CB0181E0089580E00895CF92DF92BD
:10079000EF92FF920F931F93CF93DF936C017A0137
:1007A0008B01C0E0D0E0CE15DF0589F0D8016D9156
:1007B0008D01D601ED91FC910190F081E02DC601F3
:1007C0000995892B11F47E0102C02196ECCFC70157
:1007D000DF91CF911F910F91FF90EF90DF90CF901D
:1007E0000895CF93DF931F92CDB7DEB76983DC0105
:1007F000ED91FC910280F381E02D41E050E0BE01DB
:100800006F5F7F4F09950F90DF91CF91089583E03F
:100810008093E9008091F200882319F08AE38093A5
:10082000E8000895FC018485958597FD0BC09FB76E
:10083000F89482E08093E9008091F2009FBF90E0FD
:10084000019608959FB7F89482E08093E900809123
:10085000F2009FBF90E0089508952F923F924F922B
:100860005F926F927F928F929F92AF92BF92CF9240
:10087000DF92EF92FF920F931F93CF93DF93CDB749
:10088000DEB76B970FB6F894DEBF0FBECDBF4C013D
:100890005A8349831F830E83FD82EC82CB82DC0165
:1008A00058964D915C9159974115510509F0A5C095
:1008B00018968D919C911997681779070CF05AC179
:1008C0001A968D919C911B97E981FA81E817F90797
:1008D0000CF050C1D12CCB013B81F6E03F9F800D45
:1008E000911D1124181619060CF044C1C60133E0FD
:1008F000880F991F3A95E1F749815A81840F951F16
:10090000181619060CF036C157968C91811103C048
:10091000203B08F02F5F55E0259F900111247E8732
:100920006D875B01212CC901861B970B99878887EE
:10093000A981BA811896BB87AA87B5E02B1641F02A
:10094000E885F985EA0DFB1DE653FF4F349001C0A1
:10095000312C69807A80230130FE12C0D401ED91E0
:10096000FC91BB81B13031F40480F581E02D2E8102
:100970003F8118C00684F785E02DEE80FF801CC003
:10098000EC81FD812E813F81E217F307E1F0D40174
:10099000ED91FC91BB81B13051F40480F581E02DE3
:1009A0002C813D81A301B501C40109950CC00684C9
:1009B000F785E02DEC80FD8086019601A2016D8512
:1009C0007E85C40109953694EFEF6E1A7E0A4C0CB1
:1009D0005D1C2A853B856216730609F0BDCF239402
:1009E0003FEFA31AB30A4D855E854C0D5D1D5E87F2
:1009F0004D8756E02512A1CFBDC0FA01349634913F
:100A0000329785919491231BA7E02A9F800D911D19
:100A10001124FA01259134913A8B298BFC01259000
:100A20003490FC01329634913887319644914C874A
:100A30003196E491FC013596A491319684915B81C5
:100A4000523050F06A2E0A2E000C7708E82F082E3C
:100A5000000CFF0BFB87EA87FB81CF2ED12C6C9C0F
:100A600090016D9C300D7C9C300D1124A901460F26
:100A7000571F588B4F871C82A12CEA2FAA0FFF0B00
:100A80003B016E0E7F1E5885650F711DDB01AE0F99
:100A9000BF1FBF8BAE8BE981FA81E80FF11D87FD87
:100AA000FA95F98FE88F9C85A91608F063C08A2D06
:100AB00090E04A855B85480F591F4C9D90014D9DE4
:100AC000300D5C9D300D1124A981BA81A20FB31F96
:100AD000BE87AD877B8E6A8E4F845888BC81B619DD
:100AE000BB8BE88DF98DE80FF91FFD8BEC8B8B89A3
:100AF000FA8D8F0F2A8D3B8D4E895F89241735071C
:100B000099F1877041F4C1010196E989FA89E20DF2
:100B1000F31DB4901C01B7FE1EC0D401ED91FC91F1
:100B2000BB81B13061F40480F581E02D2E813F81DD
:100B30004C895D896A8D7B8DC40109950CC0068442
:100B4000F785E02DEE80FF80860196014D855E855C
:100B5000B201C4010995BB0CEA8DFB8D3196FB8F68
:100B6000EA8F4C0C5D1CC3CF5C818885580F5C8379
:100B7000A39499CF6B960FB6F894DEBF0FBECDBF8E
:100B8000DF91CF911F910F91FF90EF90DF90CF9069
:100B9000BF90AF909F908F907F906F905F904F909D
:100BA0003F902F900895AF92BF92CF92EF92FF9215
:100BB0000F931F93CF93DF93EC01262F888D998D90
:100BC000009709F042C06A3069F42C898E859F85B0
:100BD00038E0239F800D911D11249F878E871D86ED
:100BE0001C86ACC06D3009F4A9C08E898823C1F081
:100BF0003C898C859D8546E0349F800D911D112494
:100C000048855985841795075CF01D861C868E855E
:100C10009F85E8E03E9F800D911D11249F878E8760
:100C2000EA88FB88088919894E855F856C857D85F2
:100C3000CC88CE010E942D042C898C859D85F6E000
:100C40002F9F800D911D112441C06A3079F41D86BB
:100C50001C862C89FC013696E4918E859F852E9FFB
:100C6000800D911D11249F878E8768C06D3009F417
:100C700065C0AC014C5F5F4FFA013491631708F413
:100C80005DC03196E491E61708F458C0FA0144912A
:100C9000362F341BFC013296A590B490F7E03F9FAD
:100CA000A00CB11C1124F501329634913196E491D7
:100CB000332311F0E1110DC0F5013496E4912C8934
:100CC0008C859D85E29F800D911D11249D878C87C9
:100CD00035C0F501359644915E89552311F16C8933
:100CE000E32FF0E0E40FF11D47FDFA956E9FD00170
:100CF0006F9FB00D11244C855D854A0F5B1FE88501
:100D0000F9854E175F076CF01D861C86FC01369630
:100D1000E4918E859F856E9F800D911D11249F8784
:100D20008E87EA88FB88088919894E855F856C85DE
:100D30007D85CC88CE010E942D04BECF81E090E05D
:100D4000DF91CF911F910F91FF90EF90CF90BF90C7
:100D5000AF900895EF92FF920F931F93DC01ED91F6
:100D6000FC9111971A960D911C911B9718962D9135
:100D70003C9119970684F785E02D7B0140E050E017
:100D800060E070E009951F910F91FF90EF9008953A
:100D90006F927F928F929F92AF92BF92CF92DF928B
:100DA000EF92FF920F931F93CF93DF936C015A0141
:100DB0004801EB013B01620E731EC615D70574F4A2
:100DC000D601ED91FC910084F185E02D870194011D
:100DD000A501BE01C60109952196EFCFDF91CF9104
:100DE0001F910F91FF90EF90DF90CF90BF90AF9049
:100DF0009F908F907F906F900895EF92FF920F9346
:100E00001F93DC01ED91FC91260F371F2150310912
:100E10000680F781E02D78018A0109951F910F91D5
:100E2000FF90EF900895EF92FF920F931F93780138
:100E3000DC01ED91FC91240F351F8901015011094E
:100E40000680F781E02D9B0109951F910F91FF907E
:100E5000EF9008956F927F928F929F92AF92BF9280
:100E6000CF92DF92EF92FF920F931F93CF93DF9376
:100E7000EC014B015A0169013801E881F9810284D2
:100E8000F385E02D87010995E881F981A501460DDB
:100E9000571D415051090284F385E02D9601B4019C
:100EA000CE010995E881F9810084F185E02D930157
:100EB000A501B401CE010995E881F981C80CD91CBE
:100EC000B601615071090084F185E02D9301A501FF
:100ED000CE010995DF91CF911F910F91FF90EF9077
:100EE000DF90CF90BF90AF909F908F907F906F904A
:100EF00008952F923F924F925F926F927F928F92BE
:100F00009F92AF92BF92CF92DF92EF92FF920F9398
:100F10001F93CF93DF9300D01F92CDB7DEB74C0164
:100F20007B836A836A01590117019801241B350BE1
:100F300037FF03C0319521953109C5014A815B8195
:100F4000841B950B97FF03C091958195910951E002
:100F500059838217930714F019820BC09A2D8B2D99
:100F60005801092F182F9A818B81DB82CA82C92EE2
:100F7000D82E8A819B81A816B9065CF49C2D8D2DF4
:100F80006801092F182F9A818B81BB82AA82A92E12
:100F9000B82E2501AA81BB814A1A5B0A38016C1858
:100FA0007D0877FE03C0719461947108720157FE49
:100FB00003C0BFEFEB1AFB0AF594E794C016D10605
:100FC0001CF00FEF1FEF1FC001E010E01CC0D401A8
:100FD000ED91FC91B9810480F581E02D9101BB2355
:100FE000C1F04A815B81B601C4010995E618F70892
:100FF000F7FE04C0C00ED11EE40CF51CEA81FB8193
:101000003196FB83EA834A815B81A416B506FCF620
:1010100004C0A6016A817B81E7CF0F900F900F90EB
:10102000DF91CF911F910F91FF90EF90DF90CF90C4
:10103000BF90AF909F908F907F906F905F904F90F8
:101040003F902F900895089581E090E03091C8017D
:101050002091C701321710F480E090E091958195BE
:10106000910908958091C8019091C701891730F4C2
:101070008F5F8093C80180E090E008958FEF9FEF2D
:1010800008958091C70190E02091C801821B9109C9
:10109000089585ED8093BC008091BC0084FDFCCF59
:1010A0001092FA0108954091A201262F30E0240FFA
:1010B000311D21323105DCF42091FA012430C9F4CC
:1010C000FC0180E090E0861758F43091A201219154
:1010D000DC01A058BE4FA30FB11D2C930196F3CF96
:1010E0008091A201680F6093A20180E0089581E0E1
:1010F000089582E00895CF92DF92EF92FF920F93CE
:101100001F93CF93DF937C01262F972F8A01809125
:10111000FB01882391F0C62FD72F6E01C40ED51E78
:10112000CC15DD0571F06991D701ED91FC9101902D
:10113000F081E02DC7010995F3CF642F822F0E9423
:101140005308C801DF91CF911F910F91FF90EF904D
:10115000DF90CF900895CF93DF931F92CDB7DEB786
:1011600069832091FB012223D1F020911E022032BD
:1011700040F021E030E0FC013383228380E090E006
:1011800015C08091FC01E82FF0E0E350FE4F9981FB
:1011900090838F5F8093FC0180931E0205C061E005
:1011A000CE0101960E94530881E090E00F90DF91FC
:1011B000CF9108958F929F92AF92BF92CF92DF927C
:1011C000EF92FF920F931F93CF93DF935C016B011C
:1011D0008A0180910B01882309F45EC08091D301BC
:1011E000882309F459C08091CE0180FF05C0809109
:1011F000E00082608093E000E8018AEFF82E93E03F
:10120000E92E2FE3822E3AE3932E209709F43DC076
:101210008FB7F894E092E9009091E80095FF06C03E
:101220009091F200282D291B922F01C090E08FBFD2
:1012300091110AC0FA94FF2079F161E070E080E03A
:1012400090E00E94AF11E1CF292F30E0C217D30701
:101250000CF49C2F8FB7F894E092E9002091E800FD
:1012600025FF11C0292F30E0C21BD30BF60191508E
:1012700020F041914093F100FACFC20ED31E90911D
:10128000E80095FF13C08FBFC0CF5D9884E68093C0
:10129000CD011016110644F081E090E0F501938332
:1012A000828380E090E005C0C80103C09092E8000E
:1012B000EACFDF91CF911F910F91FF90EF90DF90D8
:1012C000CF90BF90AF909F908F900895CF93DF9372
:1012D0001F92CDB7DEB7FC018485958597FD05C0CB
:1012E0002FEF3FEF358724870BC0CE0101960E9478
:1012F0007111019719F4898190E002C08FEF9FEF7F
:101300000F90DF91CF9108950F931F93CF93DF93A9
:101310001F92CDB7DEB78C01FC018485958597FFC0
:101320000EC0CE0101960E947111019719F4298116
:1013300030E002C02FEF3FEFF80135872487F80136
:10134000848595850F90DF91CF911F910F9108951E
:10135000DF92EF92FF920F931F93CF93DF93D82EDC
:101360008A017B01E40EF51EEB01CE15DF0571F05D
:10137000D7FE03C0FE01849101C088810E949803BA
:1013800021968111F2CF8FEF9FEF01C0C801DF914D
:10139000CF911F910F91FF90EF90DF9008950F93E1
:1013A0001F93CF93DF931F92CDB7DEB782E089837F
:1013B00042E450E06AEC75E080E80E94A8090E94CF
:1013C0009B11DC0112960D911C91139701151105CB
:1013D00069F0D801ED91FC910280F381E02DBE010E
:1013E0006F5F7F4FC801099597FF07C089810F90F4
:1013F000DF91CF911F910F910895F801008511851C
:10140000E5CF615030F02091F100FC01208301967E
:10141000F8CF289884E68093D2010895611571056C
:1014200079F0FB0101900020E9F73197AF01461BED
:10143000570BDC01ED91FC910280F381E02D0994C2
:1014400080E090E00895FC01958990FD09C040314D
:1014500051050CF079C0683071050CF075C04DC0B5
:10146000603171050CF070C0483051050CF06CC053
:101470009230F1F4962FBA01492F660F771FE60FCD
:10148000F71F81E090E002C0880F991F4A95E2F7AC
:10149000232B29F0228D338D822B932B06C0809530
:1014A0009095228D338D82239323938F828F08957D
:1014B000933091F4AFE0B0E0A61BB70BA830B105B4
:1014C0004CF087E090E0DC01A61BB70BBD01485F44
:1014D0005F4FD3CFBD01D1CF913079F66830710520
:1014E0001CF487E090E004C0685071098FE090E040
:1014F000DC01A41BB50BAD01C0CF913091F3A0F47A
:10150000AFE0B0E0CD01841B950B8830910534F439
:1015100047E050E0461B570BBC01AFCF87E090E09F
:10152000841B950BAD01F6CF923051F44830510534
:101530000CF4A0CFCA010897AB01485F5F4FECCF16
:10154000933009F4B7CF99CF089557FD03C077FFC3
:101550000C94230A0895FC011382128228E030E0E3
:101560003583248380E190E09783868331872087C9
:1015700093878287158A158614861786168681E0DA
:10158000848B2FEF3FEF338B228B318B208B868B1D
:10159000178A118E108E80E191E0918380830895E7
:1015A0009C01205F3F4FFC0111921192CF01E21785
:1015B000F307C9F70895EF92FF920F931F93CF930C
:1015C000DF93EC01888991E09093FB0180931D02E9
:1015D0001092FC0110921E0260E08FE692E00E94E1
:1015E000AB088E01005F1F4F7E0168818FE692E09D
:1015F0000E94AB082296F70161818FE692E00E947B
:10160000AB08C017D10781F7DF91CF911F910F91E0
:10161000FF90EF900C94740FFC01808991E09093FF
:10162000FB0180931D021092FC0110921E0260319A
:1016300008F06FE0606E8FE692E00E94AB080C94B9
:10164000740F1F93CF93DF93EC01688B1092C80146
:101650001092C7011092FC0110921E021092FA0122
:1016600011E01093F9011092D40182E00E94D10F91
:1016700083E00E94D10FE9EBF0E080818E7F8083D0
:1016800080818D7F808388E48093B80085E4809397
:10169000BC0088891093FB0180931D021092FC010D
:1016A00010921E0261E28FE692E00E94AB080E9457
:1016B000740F88891093FB0180931D021092FC0126
:1016C00010921E0261E88FE692E00E94AB080E9431
:1016D000740F6FE0CE01DF91CF911F910C940C0B32
:1016E0001F920F920FB60F9211242F933F934F9397
:1016F0005F936F937F938F939F93AF93BF93EF937A
:10170000FF938091B900887F803609F49CC068F50A
:10171000883209F45BC090F4803109F454C038F485
:10172000882309F4F6C0883009F44DC0F6C088312A
:1017300009F44CC0803209F45DC0EFC0803409F474
:1017400068C048F4803309F455C0883309F0E5C017
:101750008093F801D8C0803509F44FC0883509F46A
:101760005DC0883409F0D9C0D6C0883909F4C7C033
:10177000A8F4883709F467C038F4883609F463C0E0
:10178000803709F460C0C9C0883809F4B8C080390E
:1017900009F45FC0803809F0C0C05BC0803B09F429
:1017A00086C038F4803A09F466C0883A09F47FC0EC
:1017B000B4C0803C09F4A7C0883C09F4A4C0883BAD
:1017C00009F48AC0AAC08091D50110C09091F70198
:1017D0008091F601981770F5E091F70181E08E0F86
:1017E0008093F701F0E0EA52FE4F80818093BB00C6
:1017F00085EC86C08093F8018EC0E091F70181E00E
:101800008E0F8093F7018091BB00F0E0EA52FE4F0B
:1018100080839091F7018091F6016EC0E091F7010D
:1018200081E08E0F8093F7018091BB00F0E0EA52D7
:10183000FE4F80838091F90181116DC081E080931A
:10184000D40184EA61C083E08093FA011092C6015A
:10185000CFCF8091C601803208F051C0E091C6011F
:1018600081E08E0F8093C6018091BB00F0E0EA55C5
:10187000FE4F8083BDCF85EC8093BC001092FA01AF
:101880008091C601803230F4E091C601F0E0EA5563
:10189000FE4F10826091C60170E0E091A401F091CA
:1018A000A50186EA91E009951092C60136C084E050
:1018B0008093FA011092A3011092A201E091A0017D
:1018C000F091A10109958091A201811105C081E0EB
:1018D0008093A20110928001E091A30181E08E0F1C
:1018E0008093A301F0E0E058FE4F80818093BB001D
:1018F0009091A3018091A201981708F479CF85E80F
:101900008093BC000AC085EC8093BC001092FA0161
:1019100004C01092F8010E944908FF91EF91BF9115
:10192000AF919F918F917F916F915F914F913F9177
:101930002F910F900FBE0F901F9018950E94AE151B
:101940001F920F920FB60F9211248F939F93809145
:10195000E1009091E100937F9093E10083FF0FC03D
:101960001092E90091E09093EB001092EC0092E36A
:101970009093ED001092D30198E09093F00082FFD5
:1019800020C093E09093E9009091F200992319F020
:101990009AE39093E8009091CD01992339F09091CA
:1019A000CD0191509093CD01992389F19091D2016D
:1019B000992339F09091D20191509093D2019923BB
:1019C00041F184FF10C08091E2008E7E816080939F
:1019D000E2008091E1008F7E8093E1008091CE0152
:1019E0008E7E806111C080FF16C08091E2008E7EE5
:1019F00080618093E2008091E1008E7E8093E1001F
:101A00008091CE018E7E81608093CE0104C05D9A6C
:101A1000CDCF289AD6CF9F918F910F900FBE0F9068
:101A20001F9018951F920F920FB60F921124CF920C
:101A3000DF92EF92FF920F931F932F933F934F9359
:101A40005F936F937F938F939F93AF93BF93EF9326
:101A5000FF93CF93DF93CDB7DEB76C97DEBFCDBFDB
:101A60001092E9008091E80083FFFAC168E0CE019E
:101A700045960E94010A82EF8093E8008D8987FFD6
:101A800005C09091E80090FFFCCF03C09EEF9093BB
:101A9000E800982F907609F0C6C09E892F89188D8E
:101AA00091110CC0803829F48091D1018093F1000C
:101AB00002C01092F1001092F10047C1422F50E095
:101AC000512B913051F4811140C14130510509F041
:101AD0003CC18091D1018D7F0BC0933061F48111A5
:101AE00034C14130510509F030C18091D10182608B
:101AF0008093D1012AC1953041F48091E80080FFA4
:101B0000FCCF20682093E30020C1963009F05FC02D
:101B1000EB8CFC8C1092E9001092CC011092CB015E
:101B2000123091F51092CA011092C9010E94CF099A
:101B300099E0BE016F5F7F4FDB01E92F1D92EA95AF
:101B4000E9F799831A8391E09E8390EA98879AEF48
:101B500099872091CB013091CC01275F3F4F3C8387
:101B60002B838D831092E9001092CC011092CB014F
:101B7000F092CA01E092C90149E050E080E00E9481
:101B8000A8090E94CF09E1C0F092CA01E092C90100
:101B90000E949B11DC011296ED90FC901397E114CA
:101BA000F10409F4C0C0D701ED91FC910480F581E6
:101BB000E02DBE016B5E7F4FC7010995009719F0BC
:101BC0000CF0C3C0C6C0F701E084F184E8CF9730C1
:101BD00009F4BFC0983021F481E08093F100B5C0D2
:101BE000993009F0B2C0837009F0B3C0E5E2F1E0CA
:101BF00081E021E036E39081992361F08093E90050
:101C00002093EB0091919093EC003093ED008F5F67
:101C1000873089F78EE78093EA001092EA008F8977
:101C20008093D30192C08B8D9C8D1092E90010920D
:101C3000CC011092CB019093CA018093C901898D88
:101C4000811156C08E899D89913A59F4813209F0EB
:101C500080C047E050E064E071E080E00E94A809A5
:101C600074C0913209F075C0833289F4888D90E098
:101C7000982F88272F89822BA0E0B0E08093000165
:101C800090930101A0930201B09303015EC08032E2
:101C900069F48091E80082FFFCCF67E084E091E086
:101CA0000E94010A8BEF8093E80006C0823209F09F
:101CB0004CC08F8980930B018091D001882319F04B
:101CC000EEEFFAE002C0E0E0F8E0809104019091CC
:101CD0000501A0910601B0910701803B9440A10548
:101CE000B10509F088C080910B0180FFA0C083C0BE
:101CF0000E949B11DC0112960D911C911397011506
:101D0000110539F1D801ED91FC910190F081E02DA0
:101D1000BE016B5E7F4FC8010995811116C0F801A5
:101D200000851185ECCF1130C1F0133091F48F890B
:101D3000882309F455C08230E9F440E862E189E182
:101D400096E00E943312882321F08EEF8093E80002
:101D500087C081E28093EB0083C08B8D9C8D0897B8
:101D600011F41093CF018091CF01811136C06CE244
:101D700076E038C0813029F440E868E080E196E000
:101D8000E0CF833031F70E949B11DC011296ED9079
:101D9000FC9013978E010F5F1F4F6801E114F1044F
:101DA00079F0D701ED91FC910680F781E02DB80123
:101DB000C7010995080F111DF701E084F184EECFEA
:101DC000D8011C92F60101900020E9F73197BF017C
:101DD0006C197D0940E0C601B4CF6EE376E002C025
:101DE0006CE076E06115710509F4B3CFFB01449115
:101DF00050E080E833CF0FB6F894A895809160004A
:101E0000886180936000109260000FBEA895EE3F3D
:101E10002AE0F20739F08091FE0A9091FF0A91833F
:101E2000808393CF1092FF0A1092FE0A8ECFEE3F6E
:101E30008AE0F80731F0808191819093FF0A8093C6
:101E4000FE0A87E797E7918380839BE088E10FB6DE
:101E5000F894A895809360000FBE9093600075CFB2
:101E60006C960FB6F894DEBF0FBECDBFDF91CF9159
:101E7000FF91EF91BF91AF919F918F917F916F9162
:101E80005F914F913F912F911F910F91FF90EF9094
:101E9000DF90CF900F900FBE0F901F9018953FB717
:101EA000F8948091D6029091D702A091D802B09177
:101EB000D90226B5A89B05C02F3F19F00196A11D98
:101EC000B11D3FBFBA2FA92F982F8827820F911DD0
:101ED000A11DB11DBC01CD0142E0660F771F881F17
:101EE000991F4A95D1F7089520911E0290911D02E5
:101EF000213208F04AC08091FA018111FCCF32E012
:101F00003093FA0131E03093F9013FEF3093F8015B
:101F10001092F7012093F601ADEFB1E046ED51E0EC
:101F2000FA013E2F341B321718F43D913193F9CF4B
:101F30001092D5012091D501990F922B9093D50144
:101F40009091D401913061F41092D4019091D50117
:101F50009093BB009091BC0093FDF8CF95EC01C02D
:101F600095EE9093BC009091FA019230E1F390913C
:101F7000F8019F3F79F08091F801803241F0809123
:101F8000F801803331F084E005C081E003C082E0D5
:101F900001C083E01092FC0110921E021092FB011E
:101FA000089590E0FC01E454F94F4491FC01E3569C
:101FB000F94F2491FC01E258F94F8491882309F4E8
:101FC0004CC04423E1F150E0FA013197EF30F105C4
:101FD000B0F5EA5AFF4F0C94A815909180009F77B6
:101FE00007C0909180009F7D03C090918000977FF3
:101FF0009093800024C094B59F7702C094B59F7DD4
:1020000094BD1DC0909190009F7707C09091900063
:102010009F7D03C090919000977F909390000FC098
:102020009091C0009F7703C09091C0009F7D9093D6
:10203000C00005C09091C200977F9093C200E82F26
:10204000F0E0EE0FFF1FE059F94FA591B4918FB763
:10205000F894EC912E2B2C938FBF08952F923F92E2
:102060004F925F926F927F928F929F92AF92BF92A8
:10207000CF92DF92EF92FF920F931F93CF93DF9354
:10208000EC01E881F9810480F581E02D21E030E068
:102090004BE050E063E070E00995E881F98104804D
:1020A000F581E02D21E030E045E050E063E070E0B4
:1020B000CE010995E881F9810480F581E02D21E0C8
:1020C00030E048E050E066E070E0CE010995E8813C
:1020D000F9810480F581E02D21E030E048E050E016
:1020E00060E070E0CE01099522242394312CE12C8C
:1020F000F12C03E010E0FAEF4F2E55245A94AEEF86
:10210000CA2EDD24DA948FEFE81AF80A82E0280E4E
:10211000311CC20CD31C470183E0880E911CE8815E
:10212000F9810480F581E02D21E030E0580188E05C
:10213000A80EB11CA501B401CE01099583E0682E5B
:10214000712C6E187F08E881F9810480F581E02DFB
:1021500021E030E0A501B301CE010995E881F981C4
:102160000480F581E02D21E030E098E0A92EB12C2B
:10217000A01AB10AA501B401CE010995E881F9813F
:102180000480F581E02D21E030E0A501B301CE010E
:102190000995470188E0880E911CE881F981048047
:1021A000F581E02D21E030E0A401580183E0A80E84
:1021B000B11CB501CE010995E881F9810480F58152
:1021C000E02D21E030E0A40163E0662E712C601A5E
:1021D000710AB301CE01099578E0872E912C8E18F3
:1021E0009F08E881F9810480F581E02D21E030E04D
:1021F000A401B501CE010995E881F9810480F5813A
:10220000E02D21E030E0A401B301CE010995E016F4
:10221000F10654F4D7FC77CF0150110982E0480E43
:10222000511CC40CD51C6FCFDF91CF911F910F9122
:10223000FF90EF90DF90CF90BF90AF909F908F90E6
:102240007F906F905F904F903F902F9008955F9296
:102250006F927F928F929F92AF92BF92CF92DF92B6
:10226000EF92FF920F931F93CF93DF937C015B015B
:102270004A01C0E0D0E000E010E034016C0E7D1EA9
:102280006E01CA0CDB1C0115110511F0550C02C0C2
:10229000F301549057FE0CC0D701ED91FC910480DE
:1022A000F581E02D21E030E0A601B801C7010995D4
:1022B0000F5F1F4F0830110531F72196C830D10547
:1022C000D1F6DF91CF911F910F91FF90EF90DF90AA
:1022D000CF90BF90AF909F908F907F906F905F90C6
:1022E0000895FC018091D301811103C08FEF9FEF0E
:1022F00008959FB7F89482E08093E9002091F2005E
:1023000030E01216130614F421E030E021153105F7
:1023100059F0289884E68093D2018091F10080835F
:102320008091F200882319F09FBFC90108958BE6C0
:102330008093E800F9CF8091DE0281110DC082E028
:102340008093DA0284E08093DB021092DD02109227
:10235000DC0281E08093DE028AED92E008958F92A4
:102360009F92AF92BF92CF92DF92EF92FF926B015A
:102370007C010E944F0F4B015C01C114D104E104A8
:10238000F104F1F00E944F0FDC01CB01881999098B
:10239000AA09BB09883E9340A105B10570F321E06D
:1023A000C21AD108E108F10888EE880E83E0981E71
:1023B000A11CB11CC114D104E104F10419F7DDCF53
:1023C000FF90EF90DF90CF90BF90AF909F908F9055
:1023D00008951F920F920FB60F9211242F933F93DF
:1023E0008F939F93AF93BF938091D2029091D3022A
:1023F000A091D402B091D5023091D10223E0230FF5
:102400002D3720F40196A11DB11D05C026E8230F2C
:102410000296A11DB11D2093D1028093D202909308
:10242000D302A093D402B093D5028091D6029091AA
:10243000D702A091D802B091D9020196A11DB11D79
:102440008093D6029093D702A093D802B093D9027A
:10245000BF91AF919F918F913F912F910F900FBEA0
:102460000F901F901895CF92DF92EF92FF920F93EB
:102470001F93CF93DF931F92CDB7DEB7182F062F90
:10248000E42E862F880F8E5F99830E94980383E045
:102490000E949803F12EC12E9981D92E8C2D8F196F
:1024A000801798F4F601E7FE02C0849101C0808194
:1024B0000E949803182F80E00E9498038123FFEF69
:1024C000CF1ADF0A8111EACF01C081E00F90DF91BE
:1024D000CF911F910F91FF90EF90DF90CF900895D3
:1024E000789484B5826084BD84B5816084BD85B5EF
:1024F000826085BD85B5816085BD80916E008160FB
:1025000080936E00109281008091810082608093A0
:1025100081008091810081608093810080918000A2
:10252000816080938000809191008260809391000F
:1025300080919100816080939100809190008160F2
:10254000809390008091C10084608093C10080914D
:10255000C10082608093C1008091C100816080933E
:10256000C1008091C30081608093C3008091C0004E
:1025700082608093C0008091C20081608093C2001D
:1025800080917A00846080937A0080917A008260E2
:1025900080937A0080917A00816080937A008091A4
:1025A0007A00806880937A001092D3011092D10152
:1025B0001092CE018091D70081608093D70080EA8D
:1025C0008093D80089B5806189BD89B5826089BD55
:1025D00009B400FEFDCF61E070E080E090E00E9471
:1025E000AF118091D8008F7C80618093D80080915A
:1025F000E000807F8093E0008091E1008E7E8093F8
:10260000E1008DE08093E200559A209AEEEFFFE71B
:10261000859194918B3F9C4D19F481E08093D0017A
:102620008FEF9FEF90932C0280932B0263E571E074
:102630008FE192E00E940E0A6DE671E08FE192E078
:102640000E940E0A60E780EC92E00E94210B61E795
:1026500085E992E00E94210B64E080EC92E00E9408
:102660000C0B61E085E992E00E940C0B90E0C92E12
:1026700090E0D92ED2E0C1E080EC92E00E94D00A36
:1026800048E656E060E070E086EA92E00E9427119A
:1026900080EC92E00E94DB0A85E992E00E94D00A79
:1026A00048E656E060E070E08BE792E00E94271178
:1026B00085E992E00E94DB0A64EF71E080E090E03F
:1026C0000E94AF1180EC92E00E94D00A40E656E0F2
:1026D00060E070E086EA92E00E94271180EC92E0D0
:1026E0000E94DB0A85E992E00E94D00A40E656E0AB
:1026F00060E070E08BE792E00E94271185E992E0AC
:102700000E94DB0A64EF71E080E090E00E94AF116C
:1027100080EC92E00E94D00A48E556E068E070E064
:1027200086EA92E00E94271180EC92E00E94DB0A88
:1027300085E992E00E94D00A48E556E068E070E042
:102740008BE792E00E94271185E992E00E94DB0A64
:1027500064EF71E080E090E00E94AF1180EC92E0C5
:102760000E94D00A40E556E060E070E086EA92E020
:102770000E94271180EC92E00E94DB0A85E992E03A
:102780000E94D00A40E556E060E070E08BE792E0FE
:102790000E94271185E992E00E94DB0A64EF71E054
:1027A00080E090E00E94AF1121E030E040E050E096
:1027B00060E070E086EA92E00E94230A80EC92E0FA
:1027C0000E94DB0A21E030E040E050E060E070E091
:1027D0008BE792E00E94230A85E992E00E94DB0ADF
:1027E00064EF71E080E090E00E94AF1180EC92E035
:1027F0000E94D00AEE24E394F12C0FE010E027E0D1
:1028000030E040E050E060E070E086EA92E00E9454
:10281000790780EC92E00E94DB0A85E992E00E9451
:10282000D00A27E030E040E050E060E070E08BE765
:1028300092E00E94790785E992E00E94DB0A64EF4A
:1028400071E080E090E00E94AF1180EC92E00E9485
:10285000D00A00E110E028E030E040E050E060E025
:1028600070E086EA92E00E942A070CE010E024E083
:1028700030E042E050E062E070E086EA92E00E94E0
:10288000C80680EC92E00E94DB0A85E992E00E9493
:10289000D00A00E110E028E030E040E050E060E0E5
:1028A00070E08BE792E00E942A070CE010E024E041
:1028B00030E042E050E062E070E08BE792E00E949E
:1028C000C80685E992E00E94DB0A64EF71E080E0CF
:1028D00090E00E94AF1180EC92E00E94D00A86EA5C
:1028E00092E00E942E1080EC92E00E94DB0A85E9C3
:1028F00092E00E94D00A8BE792E00E942E1085E9B8
:1029000092E00E94DB0A64EF71E080E090E00E94B8
:10291000AF11D093BA021092BC0281E090E0909384
:10292000B9028093B8029093B7028093B602D09315
:102930008F021092910290938E0280938D02909359
:102940008C0280938B0200E010E080EC92E00E9409
:10295000D00A85E992E00E94D00A1093B302009356
:10296000B2021092B5021092B40260E771E086EAFA
:1029700092E00E940E0A1093880200938702109240
:102980008A021092890260E771E08BE792E00E9470
:102990000E0A80EC92E00E94DB0A85E992E00E9438
:1029A000DB0A64E670E080E090E00E94AF11015025
:1029B00011090F3B8FEF180741F6C093BA0210922E
:1029C000BC0281E090E09093B9028093B8029093AA
:1029D000B7028093B602C093BB022091AC02309143
:1029E000AD023093AF022093AE022091AA02309143
:1029F000AB023093B1022093B002C0938F021092C9
:102A0000910290938E0280938D0290938C0280931A
:102A10008B02C093900280918102909182029093E8
:102A200084028093830280917F0290918002909330
:102A300086028093850207E010E080EC92E00E941D
:102A4000D00A1093B3020093B2021092B502109212
:102A5000B40264E771E086EA92E00E940E0A80EC1C
:102A600092E00E94DB0A85E992E00E94D00A10936E
:102A700088020093870210928A021092890264E70A
:102A800071E08BE792E00E940E0A85E992E00E94D5
:102A9000DB0A64E670E080E090E00E94AF11015034
:102AA00011090B3D2FEF120741F6C093BB02809135
:102AB000AC029091AD029093AF028093AE028091F0
:102AC000AA029091AB029093B1028093B002C0939E
:102AD000900280918102909182029093840280936F
:102AE000830280917F02909180029093860280936E
:102AF0008502C114D10409F4BFCD0E940000BCCDF1
:102B0000EFE1F2E01382128288EE93E0A0E0B0E001
:102B100084839583A683B7832FE231E031832083BA
:102B20002FEF3FEF35872487EFE6F2E01382128222
:102B300084839583A683B7838FE391E09183808319
:102B400086EA92E00E94AB0A8BE792E00C94AB0A13
:102B5000EE0FFF1F0590F491E02D099481E090E0C5
:0A2B6000F8940C94B315F894FFCF1D
:102B6A00FFFFFFFF00E1000000000000000000007E
:102B7A00D305C603A50A79071307FD062A07C8065F
:102B8A00AA062C0400C1808100000000000000F1A8
:102B9A0003DA08120466098409070400000000AB7E
:102BAA00087B084108320824082308000000009E18
:102BBA000CC60331367838204C4544204D696E697D
:102BCA00204D61747269782054657374000D0A008F
:102BDA00504D5800504D2D524F424F544958000005
:00000001FF
