:100000000C9467000C948F000C948F000C948F005C
:100010000C948F000C948F000C948F000C948F0024
:100020000C948F000C948F000C948F000C948F0014
:100030000C948F000C94F5040C948F000C948F009A
:100040000C94AB040C948F000C948F000C948F00D4
:100050000C948F000C948F000C948F000C948F00E4
:100060000C94E4050C948F0005A84CCDB2D44EB985
:100070003836A9020C50B9918688083CA6AAAA2A4B
:10008000BE000000803F00000000250028002B007B
:10009000040404040404040402020202020203032E
:1000A0000303030301020408102040800102040836
:1000B00010200102040810200000000800020100C6
:1000C00000030407000000000000000012071124D4
:1000D0001FBECFEFD8E0DEBFCDBF25E0A0E3B1E08B
:1000E00001C01D92A83CB207E1F711E0A0E0B1E029
:1000F000EEEEF0E202C005900D92A033B107D9F701
:1001000010E0C7E6D0E004C02197FE010E94160E61
:10011000C636D107C9F70E94070C0C9475100C94D1
:10012000000090E0FC01E854FF4F2491FC01EC55E5
:10013000FF4F3491FC01E057FF4FE491EE23B1F102
:10014000222339F1233091F038F42130A9F0223004
:1001500001F584B58F7D12C0273091F02830A1F0D1
:100160002430B9F4809180008F7D03C0809180009D
:100170008F77809380000DC084B58F7784BD09C0D0
:100180008091B0008F7703C08091B0008F7D809305
:10019000B000F0E0EE0FFF1FEA57FF4FA591B491BA
:1001A0008FB7F894EC913E2B3C938FBF089528981D
:1001B00083E290E00197F1F75F9888E021E095B144
:1001C000922795B98150D9F708959C0190E142E0BA
:1001D00037FF02C0289A01C0289885B1842785B9C5
:1001E000220F331F9150A1F7089580E090E00E9404
:1001F000E500289880EC22E095B1922795B98150CE
:10020000D9F780E090E00E94E500289880EC22E099
:1002100095B1922795B98150D9F70C94D7003FB783
:10022000F8948091B6029091B702A091B802B09173
:10023000B90226B5A89B05C02F3F19F00196A11D54
:10024000B11D3FBFBA2FA92F982F8827820F911D6C
:10025000A11DB11DBC01CD0142E0660F771F881FB3
:10026000991F4A95D1F708958F929F92AF92BF92AE
:10027000CF92DF92EF92FF926B017C010E940F01FF
:100280004B015C01C114D104E104F104F1F00E94BE
:100290000F01DC01CB0188199909AA09BB09883E25
:1002A0009340A105B10570F321E0C21AD108E1081D
:1002B000F10888EE880E83E0981EA11CB11CC114C1
:1002C000D104E104F10419F7DDCFFF90EF90DF9046
:1002D000CF90BF90AF909F908F900895E091D901FB
:1002E000F091DA01309729F01092A00210929F024B
:1002F00009940895CF93DF93AC01E091A702F091A8
:10030000A8023097F1F09091A2028091A102981773
:10031000C0F090E0292F30E02617370754F4D901B8
:10032000A754BE4FEA01C20FD31F88818C939F5FF1
:10033000F1CF1092A2026093A102CB01DF91CF9185
:100340000994DF91CF910895CF92DF92EF92FF92BF
:100350000F931F93CF93DF936C017A018B01C0E061
:10036000D0E0CE15DF0589F0D8016D918D01D60161
:10037000ED91FC910190F081E02DC6010995892B4A
:1003800011F47E0102C02196ECCFC701DF91CF911D
:100390001F910F91FF90EF90DF90CF9008950895F7
:1003A000E091A2028091A102E81730F4F0E0E75456
:1003B000FE4F808190E008958FEF9FEF0895909118
:1003C000A2028091A102981750F4E92FF0E0E754BF
:1003D000FE4F208130E09F5F9093A20202C02FEF7A
:1003E0003FEFC90108958091A10290E02091A202FF
:1003F000821B9109089585ED8093BC008091BC001B
:1004000084FDFCCF10929E02089540915101262F49
:1004100030E0240F311D21323105DCF420919E02A1
:100420002430C9F4FC0180E090E0861758F4309144
:1004300051012191DC01AF5CBE4FA30FB11D2C9384
:100440000196F3CF80915101680F6093510180E0D4
:10045000089581E0089582E00895CF92DF92EF92AF
:10046000FF920F931F93CF93DF937C01262F972F3B
:100470008A018091B801882391F0C62FD72F6E0191
:10048000C40ED51ECC15DD0571F06991D701ED9133
:10049000FC910190F081E02DC7010995F3CF642F05
:1004A000822F0E940502C801DF91CF911F910F9109
:1004B000FF90EF90DF90CF900895CF93DF931F923E
:1004C000CDB7DEB769832091B8012223D1F0209106
:1004D0009F02203240F021E030E0FC013383228390
:1004E00080E090E015C08091A002E82FF0E0E8568F
:1004F000FE4F998190838F5F8093A00280939F022B
:1005000005C061E0CE0101960E94050281E090E005
:100510000F90DF91CF910895CF93DF936BED71E052
:1005200048E453E0FB0120E030E0DA01A20FB31F02
:100530008D919D910D90BC91A02DBB27819397AF7C
:10054000EF01C158DF4FA8832C5F3F4F20323105A8
:1005500061F7685F7F4F405E5F4F84E04834580723
:1005600009F7DF91CF9108952635E4E33E07E2E1F4
:100570004E075105C1F088309105A8F46830710527
:1005800090F4FC0183E0EE0FFF1F8A95E1F7E60F80
:10059000F71FEE0FFF1FEE0FFF1FE85BFC4F2083DE
:1005A00031834283538308958F929F92AF92BF927B
:1005B000CF92DF92EF92FF92CF93DF9368E475E0E2
:1005C00020E030E046E5C42E44E3D42E42E1E42EA0
:1005D000F12C812C50E8952EA92CB12CFC0140E087
:1005E00050E0C191D191DB01A40FB51F2C173D073D
:1005F00034F41D921D921D921C9213970EC02C175D
:100600003D0731F48D929D92AD92BC92139705C037
:10061000CD92DD92ED92FC9213974C5F5F4F40328A
:100620005105F9F62F5F3F4F605E7F4F2430310553
:10063000A9F6DF91CF91FF90EF90DF90CF90BF9020
:10064000AF909F908F9008958530910538F5653073
:10065000710520F5209106013091070130930901C1
:100660002093080120910001309101013093030192
:100670002093020190930B0180930A01709305016E
:100680006093040180E090E0A0E8BFE38093A902BA
:100690009093AA02A093AB02B093AC0208950E947B
:1006A000701021E02093B80124E0209330011092D3
:1006B000A00210929F02009799F0BC01FC010190EA
:1006C0000020E9F73197AF01481B590BE091BA02BE
:1006D000F091BB020280F381E02D8AEB92E0099554
:1006E00090919F0280913001913208F046C0209194
:1006F0009E022111FCCF22E020939E0221E0209354
:100700009D022FEF20937401109296019093950112
:10071000A8E9B1E045E751E0FA012E2F241B291783
:1007200018F42D912193F9CF109297019091970190
:10073000880F892B8093970180919C02813061F40E
:1007400010929C02809197018093BB008091BC0025
:1007500083FDF8CF85EC01C085EE8093BC008091CD
:100760009E028230E1F3809174018F3F31F08091DD
:100770007401803211F0809174011092A0021092E5
:100780009F021092B80108958330910598F56B305F
:10079000710580F502966115710519F460E070E04D
:1007A0001AC06130710519F461E070E014C09B015A
:1007B000225031092230310518F462E070E00BC09C
:1007C0006430710519F463E070E005C065307105AF
:1007D00021F464E070E00C9424039B01265031095D
:1007E0002230310580F36830710539F369307105C5
:1007F00081F7E9CF089580E090E0A0ECBFE380931B
:10080000AD029093AE02A093AF02B093B0020895F0
:10081000AF92BF92CF92DF92EF92FF920F931F930E
:10082000CF93DF93CDB7DEB76C01EDB6FEB68DB7D3
:100830009EB78C199D090FB6F8949EBF0FBE8DBF51
:100840000DB71EB70F5F1F4F5801C501801B910BDD
:100850008C159D0544F48AEB92E00E94DF01F501BE
:1008600081935F01F2CF1C141D04C4F4F801808150
:10087000823419F40E94FB0311C08C3479F4F8011E
:100880004381042E000C550B6281062E000C770B61
:100890008181082E000C990B0E94C4030FB6F894B6
:1008A000FEBE0FBEEDBEDF91CF911F910F91FF9065
:1008B000EF90DF90CF90BF90AF9008958F929F926E
:1008C000AF92BF92CF92DF92EF92FF920F931F935E
:1008D000CF93DF938A01E9019B01AC0160E070E0F6
:1008E00080E89FE30E941C0E2BED3FE049E450E4BA
:1008F0000E94960F0E94890E4B015C01B801012EE7
:10090000000C880B990B0E94C60E6B017C01C01B6A
:10091000D10BBE01DD0F880B990B0E94C60E9B0107
:10092000AC01C501B4010E94960F9B01AC01C70147
:10093000B6010E941C0E0E948E0ECB01DF91CF915A
:100940001F910F91FF90EF90DF90CF90BF90AF90ED
:100950009F908F9008951F920F920FB60F921124BF
:100960002F933F938F939F93AF93BF938091B20246
:100970009091B302A091B402B091B5023091B1024E
:1009800023E0230F2D3720F40196A11DB11D05C0D2
:1009900026E8230F0296A11DB11D2093B10280937A
:1009A000B2029093B302A093B402B093B5028091C7
:1009B000B6029091B702A091B802B091B902019627
:1009C000A11DB11D8093B6029093B702A093B80207
:1009D000B093B902BF91AF919F918F913F912F91A9
:1009E0000F900FBE0F901F9018951F920F920FB689
:1009F0000F921124FF920F931F932F933F934F93C6
:100A00005F936F937F938F939F93AF93BF93CF9396
:100A1000DF93EF93FF930E94F50080919B02877014
:100A2000F82E80E090E00E94E5000F2D10E0E80134
:100A300083E0CC0FDD1F8A95E1F7C552DE4F8F8131
:100A400090E00E94E5008E8190E00E94E5008D819B
:100A500090E00E94E5008C8190E00E94E5008B818F
:100A600090E00E94E5008A8190E00E94E500898183
:100A700090E00E94E500888190E00E94E500FE0180
:100A8000E95BFF4F808190E00E94E500FE01EA5B98
:100A9000FF4F808190E00E94E500FE01EB5BFF4F7D
:100AA000808190E00E94E500FE01EC5BFF4F8081B9
:100AB00090E00E94E50080E090E00E94E500FE01E9
:100AC000ED5BFF4F808190E00E94E500FE01EE5B50
:100AD000FF4F808190E00E94E500FE01EF5BFF4F39
:100AE000808190E00E94E500F80193E0EE0FFF1F87
:100AF0009A95E1F7E55EFD4F808190E00E94E50068
:100B0000FE01E957FF4F808190E00E94E500FE0161
:100B1000EA57FF4F808190E00E94E500FE01EB570D
:100B2000FF4F808190E00E94E500FE01EC57FF4FEF
:100B3000808190E00E94E500FE01ED57FF4F80812B
:100B400090E00E94E500FE01EE57FF4F808190E0AB
:100B50000E94E500CF57DF4F888190E00E94E500BA
:100B600023E0000F111F2A95E1F7F801E55AFD4F28
:100B7000808190E00E94E5000E94D7008BB18F70C9
:100B80008BB98BB1F29430EFF322F82AFBB85F9A5D
:100B900080919B028F5F80939B025A98FF91EF9107
:100BA000DF91CF91BF91AF919F918F917F916F9185
:100BB0005F914F913F912F911F910F91FF900F9057
:100BC0000FBE0F901F9018951F920F920FB60F92A5
:100BD00011242F933F934F935F936F937F938F9342
:100BE0009F93AF93BF93EF93FF938091B900887F5A
:100BF000803609F49CC068F5883209F45BC090F433
:100C0000803109F454C038F4882309F4F6C08830E0
:100C100009F44DC0F6C0883109F44CC0803209F4A3
:100C20005DC0EFC0803409F468C048F4803309F433
:100C300055C0883309F0E5C080937401D8C0803571
:100C400009F44FC0883509F45DC0883409F0D9C073
:100C5000D6C0883909F4C7C0A8F4883709F467C03A
:100C600038F4883609F463C0803709F460C0C9C01D
:100C7000883809F4B8C0803909F45FC0803809F0B9
:100C8000C0C05BC0803B09F486C038F4803A09F4E8
:100C900066C0883A09F47FC0B4C0803C09F4A7C09C
:100CA000883C09F4A4C0883B09F48AC0AAC080919A
:100CB000970110C09091960180919501981770F559
:100CC000E091960181E08E0F80939601F0E0EB5861
:100CD000FE4F80818093BB0085EC86C080937401B9
:100CE0008EC0E091960181E08E0F809396018091F5
:100CF000BB00F0E0EB58FE4F80839091960180910D
:100D000095016EC0E091960181E08E0F809396016F
:100D10008091BB00F0E0EB58FE4F808380919D02F4
:100D200081116DC081E080939C0284EA61C083E000
:100D300080939E0210927301CFCF80917301803215
:100D400008F051C0E091730181E08E0F8093730130
:100D50008091BB00F0E0ED5AFE4F8083BDCF85EC63
:100D60008093BC0010929E0280917301803230F417
:100D7000E0917301F0E0ED5AFE4F10826091730133
:100D800070E0E091A302F091A40283E591E009955F
:100D90001092730136C084E080939E02109252013B
:100DA00010925101E091A502F091A602099580915F
:100DB0005101811105C081E08093510110923101F0
:100DC000E091520181E08E0F80935201F0E0EF5CE0
:100DD000FE4F80818093BB00909152018091510120
:100DE000981708F479CF85E88093BC000AC085EC99
:100DF0008093BC0010929E0204C0109274010E9465
:100E0000FB01FF91EF91BF91AF919F918F917F91E6
:100E10006F915F914F913F912F910F900FBE0F9067
:100E20001F9018950F931F93EAEBF2E01382128242
:100E300088EE93E0A0E0B0E084839583A683B78337
:100E400084E291E091838083E8E4F5E010821182EE
:100E500012821382148215821682178210861186DE
:100E6000128613861486158616861786108A118AAE
:100E7000128A138A148A158A168A178A108E118E7E
:100E8000128E138E148E158E168E178E10A211A22E
:100E900012A213A214A215A216A217A210A611A69E
:100EA00012A613A614A615A616A617A610AA11AA6E
:100EB00012AA13AA14AA15AA16AA17AA10AE11AE3E
:100EC00012AE13AE14AE15AE16AE17AE1092880564
:100ED0001092890510928A0510928B0510928C054C
:100EE00010928D0510928E0510928F05109290052C
:100EF000109291051092920510929305109294050C
:100F000010929505109296051092970510929805EB
:100F10001092990510929A0510929B0510929C05CB
:100F200010929D0510929E0510929F051092A005AB
:100F30001092A1051092A2051092A3051092A4058B
:100F40001092A5051092A6051092A7051092A8056B
:100F50001092A9051092AA051092AB051092AC054B
:100F60001092AD051092AE051092AF051092B0052B
:100F70001092B1051092B2051092B3051092B4050B
:100F80001092B5051092B6051092B7051092B805EB
:100F90001092B9051092BA051092BB051092BC05CB
:100FA0001092BD051092BE051092BF051092C005AB
:100FB0001092C1051092C2051092C3051092C4058B
:100FC0001092C5051092C6051092C705E8E4F4E03A
:100FD00080E890E8A0E8B0E080839183A283B383A7
:100FE00084839583A683B783108611861286138621
:100FF00084879587A687B787808B918BA28BB38BCD
:10100000848B958BA68BB78B808F918FA28FB38F9C
:10101000148E158E168E178E80A391A3A2A3B3A350
:1010200084A395A3A6A3B7A380A791A7A2A7B3A7BC
:1010300084A795A7A6A7B7A780AB91ABA2ABB3AB8C
:1010400084AB95ABA6ABB7AB80AF91AFA2AFB3AF5C
:1010500084AF95AFA6AFB7AF80938804909389040F
:10106000A0938A04B0938B0410928C0410928D0488
:1010700010928E0410928F0410929004109291049A
:101080001092920410929304809394049093950488
:10109000A0939604B0939704809398049093990436
:1010A000A0939A04B0939B0410929C0410929D0408
:1010B00010929E0410929F041092A0041092A1041A
:1010C0001092A2041092A3048093A4049093A50408
:1010D000A093A604B093A7048093A8049093A904B6
:1010E000A093AA04B093AB048093AC049093AD0496
:1010F000A093AE04B093AF041092B0041092B10468
:101100001092B2041092B3048093B4049093B50487
:10111000A093B604B093B7048093B8049093B90435
:10112000A093BA04B093BB041092BC041092BD0407
:101130001092BE041092BF048093C0049093C10427
:10114000A093C204B093C3048093C4049093C504D5
:10115000A093C604B093C7048093C8049093C904B5
:10116000A093CA04B093CB048093CC049093CD0495
:10117000A093CE04B093CF041092D0041092D10467
:101180001092D2041092D3041092D4041092D50479
:101190001092D6041092D7041092D8041092D90459
:1011A0001092DA041092DB041092DC041092DD0439
:1011B0001092DE041092DF048093E0049093E10427
:1011C000A093E204B093E3048093E4049093E504D5
:1011D000A093E604B093E7048093E8049093E904B5
:1011E000A093EA04B093EB048093EC049093ED0495
:1011F000A093EE04B093EF041092F0041092F10467
:101200001092F2041092F3041092F4041092F50478
:101210001092F6041092F7041092F8041092F90458
:101220001092FA041092FB041092FC041092FD0438
:101230001092FE041092FF04809300059093010524
:10124000A0930205B09303058093040590930505D0
:10125000A0930605B09307051092080510920905A2
:1012600010920A0510920B0510920C0510920D05B4
:1012700010920E0510920F05109210051092110594
:101280001092120510921305109214051092150574
:101290001092160510921705109218051092190554
:1012A00010921A0510921B0510921C0510921D0534
:1012B00010921E0510921F05809320059093210522
:1012C000A0932205B09323058093240590932505D0
:1012D000A0932605B09327051092280510922905A2
:1012E00010922A0510922B0510922C0510922D05B4
:1012F00010922E0510922F05109230051092310594
:101300001092320510923305109234051092350573
:101310001092360510923705109238051092390553
:1013200010923A0510923B0510923C0510923D0533
:1013300010923E0510923F05809340059093410521
:10134000A0934205B09343058093440590934505CF
:10135000A0934605B0934705E8E4F3E010821182BC
:1013600012821382148215821682178210861186C9
:10137000128613861486158616861786108A118A99
:10138000128A138A148A158A168A178A108E118E69
:10139000128E138E148E158E168E178E10A211A219
:1013A00012A213A214A215A216A217A210A611A689
:1013B00012A613A614A615A616A617A610AA11AA59
:1013C00012AA13AA14AA15AA16AA17AA10AE11AE29
:1013D00012AE13AE14AE15AE16AE17AE1092880351
:1013E0001092890310928A0310928B0310928C033F
:1013F00010928D0310928E0310928F03109290031F
:1014000010929103109292031092930310929403FE
:1014100010929503109296031092970310929803DE
:101420001092990310929A0310929B0310929C03BE
:1014300010929D0310929E0310929F031092A0039E
:101440001092A1031092A2031092A3031092A4037E
:101450001092A5031092A6031092A7031092A8035E
:101460001092A9031092AA031092AB031092AC033E
:101470001092AD031092AE031092AF031092B0031E
:101480001092B1031092B2031092B3031092B403FE
:101490001092B5031092B6031092B7031092B803DE
:1014A0001092B9031092BA031092BB031092BC03BE
:1014B0001092BD031092BE031092BF031092C0039E
:1014C0001092C1031092C2031092C3031092C4037E
:1014D0001092C5031092C6031092C7031092C8035E
:1014E0001092C9031092CA031092CB031092CC033E
:1014F0001092CD031092CE031092CF031092D0031E
:101500001092D1031092D2031092D3031092D403FD
:101510001092D5031092D6031092D7031092D803DD
:101520001092D9031092DA031092DB031092DC03BD
:101530001092DD031092DE031092DF031092E0039D
:101540001092E1031092E2031092E3031092E4037D
:101550001092E5031092E6031092E7031092E8035D
:101560001092E9031092EA031092EB031092EC033D
:101570001092ED031092EE031092EF031092F0031D
:101580001092F1031092F2031092F3031092F403FD
:101590001092F5031092F6031092F7031092F803DD
:1015A0001092F9031092FA031092FB031092FC03BD
:1015B0001092FD031092FE031092FF03109200049C
:1015C0001092010410920204109203041092040479
:1015D0001092050410920604109207041092080459
:1015E0001092090410920A0410920B0410920C0439
:1015F00010920D0410920E0410920F041092100419
:1016000010921104109212041092130410921404F8
:1016100010921504109216041092170410921804D8
:101620001092190410921A0410921B0410921C04B8
:1016300010921D0410921E0410921F041092200498
:101640001092210410922204109223041092240478
:101650001092250410922604109227041092280458
:101660001092290410922A0410922B0410922C0438
:1016700010922D0410922E0410922F041092300418
:1016800010923104109232041092330410923404F8
:1016900010923504109236041092370410923804D8
:1016A0001092390410923A0410923B0410923C04B8
:1016B00010923D0410923E0410923F041092400498
:1016C0001092410410924204109243041092440478
:1016D000109245041092460410924704E8E0F3E0AB
:1016E00086E594E3A2E1B0E080839183A283B38393
:1016F00040E050E06FEF70E044835583668377836A
:10170000408751876287738784879587A687B787C5
:10171000408B518B628B738B00E110E12FEF30E037
:10172000048B158B268B378B408F518F628F738F75
:10173000448F558F668F778F40A351A362A373A305
:1017400044A355A366A377A340A751A762A773A795
:1017500044A755A766A777A780AB91ABA2ABB3AB65
:1017600044AB55AB66AB77AB40AF51AF62AF73AF35
:1017700084AF95AFA6AFB7AFE8ECF2E0808391837A
:10178000A283B38384839583A683B783808791875D
:10179000A287B38784879587A687B787808B918B2D
:1017A000A28BB38B848B958BA68BB78B408F518F7D
:1017B000628F738F848F958FA68FB78F80A391A32D
:1017C000A2A3B3A344A355A366A377A300A711A71D
:1017D00022A733A744A755A766A777A780AB91ABED
:1017E000A2ABB3AB84AB95ABA6ABB7AB40AF51AF3D
:1017F00062AF73AF84AF95AFA6AFB7AF8AE09AE19F
:101800009093C7028093C6021F910F910895CF93C2
:10181000DF93CDB7DEB760970FB6F894DEBF0FBE8B
:10182000CDBF789484B5826084BD84B5816084BD69
:1018300085B5826085BD85B5816085BD80916E006E
:10184000816080936E00109281008091810082609F
:1018500080938100809181008160809381008091DC
:1018600080008160809380008091B10084608093CB
:10187000B1008091B00081608093B00080917A00C7
:10188000846080937A0080917A00826080937A00ED
:1018900080917A00816080937A0080917A008068DC
:1018A00080937A001092C1008AB1806F8AB98BB19F
:1018B0008F708BB9529A209A219A28982998259A44
:1018C0000E94F5001092800080E18093810080E109
:1018D00097E2909387008093860091E090936F0049
:1018E0001092850010928400809181008160809325
:1018F0008100789488E08093BA002EE631E030933E
:10190000A6022093A5022AE731E03093A402209397
:10191000A3021092A2021092A1021092A0021092B1
:101920009F0210929E0290939D0210929C0282E16F
:101930000E94910083E10E9491008091B9008E7F06
:101940008093B9008091B9008D7F8093B90088E4BD
:101950008093B80085E48093BC0088E094E0909385
:10196000A8028093A70230E1532E40E0642E40E0AD
:10197000742EE12CF12C00E010E020E030E0A90111
:10198000B801C7010E94B4020F5F1F4F0830110554
:10199000A1F78FEFE81AF80A88E0E816F10459F782
:1019A0008091C6029091C702181619063CF028E4EF
:1019B000A22E24E0B22EE12CF12C08C101979093C5
:1019C000C7028093C602C090AD02D090AE02E090F4
:1019D000AF02F090B00220E030E040E85FE3C701E2
:1019E000B6010E94910F18168CF420E030E040E818
:1019F0005FE3C701B6010E941C0E9B01AC010E946F
:101A00001D0E24E030E040E050E00FC020E030E068
:101A1000A901C701B6010E94910F1816D4F420E065
:101A200030E044E050E0C701B6010E945E044C0182
:101A30002DEC3CEC4CE45DE3C701B6010E941C0EAA
:101A40006093AD027093AE028093AF029093B002A8
:101A500002C0812C912CC090A902D090AA02E090E3
:101A6000AB02F090AC0220E030E0A901C701B60162
:101A70000E94910F20910A0130910B010091040105
:101A800010910501181684F5409108015091090143
:101A9000C701B6010E945E0490930701809306017E
:101AA00040910201509103019801C701B6010E94C3
:101AB0005E0490930101809300012AE037ED43E238
:101AC0005CE3C701B6010E941C0E6093A9027093EB
:101AD000AA028093AB029093AC0298E0A92E93E007
:101AE000B92E00E010E009C03093070120930601F1
:101AF0001093010100930001F0CFC12CD12CE12CF7
:101B0000F12C08151905ACF0F501EC0DFD1D208137
:101B100031814281538160910001709101016E0D0C
:101B20007F1D8091060190910701800F911F0E94F7
:101B3000B4028FEFE81AF80A84E0C80ED11C84E0E2
:101B4000E816F104F1F60F5F1F4F80E1A80EB11CFB
:101B50000430110591F6E0E1F1E0DE011196852DEA
:101B600001900D928A95E1F7CE0101960E94D40270
:101B700088E4A82E85E0B82EE12CF12CC12CD12CC4
:101B800000E010E0F501EC0DFD1D20813181428166
:101B90005381B801C7010E94B4020F5F1F4F84E058
:101BA000C80ED11C0830110569F78FEFE81AF80A42
:101BB00080E2A80EB11C84E0E816F104F9F60E9458
:101BC0008C026FE070E080E090E027C0C12CD12C47
:101BD00000E010E0F501EC0DFD1D20813181428116
:101BE0005381B801C7010E94B4020F5F1F4F84E008
:101BF000C80ED11C0830110569F78FEFE81AF80AF2
:101C000080E2A80EB11C88E0E816F104F9F60E9403
:101C10008C0268E873E180E090E00E943401611476
:101C2000710409F4A6CE0E940000A3CEEE0FFF1FA0
:101C30000590F491E02D09945058BB27AA270E94E3
:101C4000340E0C94430F0E940A0F38F00E94110FBB
:101C500020F039F49F3F19F426F40C94070F0EF48A
:101C6000E095E7FB0C94010FE92F0E94680F58F3F1
:101C7000BA17620773078407950720F079F4A6F571
:101C80000C948A0F0EF4E0950B2EBA2FA02D0B01A9
:101C9000B90190010C01CA01A0011124FF27591BB1
:101CA00099F0593F50F4503E68F11A16F040A22FB7
:101CB000232F342F4427585FF3CF46953795279528
:101CC000A795F0405395C9F77EF41F16BA0B620B27
:101CD000730B840BBAF09150A1F0FF0FBB1F661F6E
:101CE000771F881FC2F70EC0BA0F621F731F841FB1
:101CF00048F4879577956795B795F7959E3F08F0D7
:101D0000B0CF9395880F08F09927EE0F9795879598
:101D100008950E941A0FE3950C94540F0E94950E9B
:101D20006894B1110C948B0F08950E94700F88F085
:101D30009F5798F0B92F9927B751B0F0E1F0660F8F
:101D4000771F881F991F1AF0BA95C9F714C0B130D0
:101D500091F00E948A0FB1E008950C948A0F672FCA
:101D6000782F8827B85F39F0B93FCCF386957795FF
:101D70006795B395D9F73EF49095809570956195E8
:101D80007F4F8F4F9F4F0895E89409C097FB3EF413
:101D900090958095709561957F4F8F4F9F4F9923B8
:101DA000A9F0F92F96E9BB279395F6958795779536
:101DB0006795B795F111F8CFFAF4BB0F11F460FFF6
:101DC0001BC06F5F7F4F8F4F9F4F16C0882311F04E
:101DD00096E911C0772321F09EE8872F762F05C062
:101DE000662371F096E8862F70E060E02AF09A95FD
:101DF000660F771F881FDAF7880F9695879597F9F2
:101E0000089597F99F6780E870E060E008959FEF7C
:101E100080EC089500240A94161617061806090681
:101E2000089500240A941216130614060506089550
:101E30000C94070F0E94700FD8F3E894E0E0BB27E2
:101E40009F57F0F02AED3FE049EC06C0EE0FBB0FC4
:101E5000661F771F881F28F0B23A6207730784074E
:101E600028F0B25A620B730B840BE3959A9572F7C4
:101E7000803830F49A95BB0F661F771F881FD2F702
:101E800090480C942910092E0394000C11F4882317
:101E900052F0BB0F40F4BF2B11F460FF04C06F5F22
:101EA0007F4F8F4F9F4F0895EF93E0FF07C0A2EA47
:101EB0002AED3FE049EC5FEB0E94340E0E94430F95
:101EC0000F90039401FC9058E8E6F0E00C94351074
:101ED00057FD9058440F551F59F05F3F71F04795DB
:101EE000880F97FB991F61F09F3F79F087950895C0
:101EF000121613061406551FF2CF4695F1DF08C0DF
:101F0000161617061806991FF1CF869571056105FB
:101F100008940895E894BB2766277727CB0197F9A3
:101F200008950E94031008F48FEF08950E94A90FEE
:101F30000C94430F0E940A0F38F00E94110F20F0FA
:101F4000952311F00C94010F0C94070F11240C949D
:101F50008B0F0E94680F70F3959FC1F3950F50E0AF
:101F6000551F629FF001729FBB27F00DB11D639F4B
:101F7000AA27F00DB11DAA1F649F6627B00DA11DF1
:101F8000661F829F2227B00DA11D621F739FB00D97
:101F9000A11D621F839FA00D611D221F749F332707
:101FA000A00D611D231F849F600D211D822F762FA0
:101FB0006A2F11249F5750409AF0F1F088234AF07D
:101FC000EE0FFF1FBB1F661F771F881F91505040E9
:101FD000A9F79E3F510580F00C94010F0C948B0FD4
:101FE0005F3FE4F3983ED4F3869577956795B79570
:101FF000F795E7959F5FC1F7FE2B880F911D96958A
:10200000879597F90895990F0008550FAA0BE0E8F6
:10201000FEEF16161706E807F907C0F012161306AA
:10202000E407F50798F0621B730B840B950B39F4EA
:102030000A2661F0232B242B252B21F408950A2650
:1020400009F4A140A6958FEF811D811D08959F3F42
:1020500031F0915020F4879577956795B795880F63
:10206000911D9695879597F908959F938F937F93E8
:102070006F93FF93EF939B01AC010E94960FEF913A
:10208000FF910E9449102F913F914F915F910C94C5
:10209000960FDF93CF931F930F93FF92EF92DF92F0
:1020A0007B018C01689406C0DA2EEF010E94A90F13
:1020B000FE01E894A5912591359145915591A6F39E
:1020C000EF010E94340EFE019701A801DA9469F72E
:1020D000DF90EF90FF900F911F91CF91DF910895C6
:0E20E00081E090E0F8940C947510F894FFCF16
:1020EE0002000200020002000200020001000000D5
:1020FE0001000100000000000000010001000100CD
:10210E00000000005D022D02F301DF01D001CF01BE
:00000001FF
